:100000000C9450000C9494000C9494000C94940064
:100010000C9494000C9494000C9494000C94940010
:100020000C9494000C9494000C9494000C94940000
:100030000C9494000C9494000C9494000C949400F0
:100040000C9494000C9494000C9494000C949400E0
:100050000C9494000C9494000C9494000C949400D0
:100060000C9494000C9494000C9494000C949400C0
:100070000C9494000C9494000C9494000C949400B0
:100080000C9494000C9494000C9494000C949400A0
:100090000C9494000C9494000C9494000C94940090
:1000A00011241FBECFEFCDBFDFE3DEBFE0EAF0E0FB
:1000B00040E017C0B591A59135912591059107FDB7
:1000C0000CC095918591EF01F92FE82F05900D92C5
:1000D000A217B307D9F7FE0104C01D92A217B307F8
:1000E000E1F7E03AF40731F70E947A000C948900B6
:0400F000F894FFCFB2
:1000F40080E28093A104E7EAF4E020E2208380E038
:0E01040090E0019681153AEF9307D9F7F7CFF7
:10011200EC010E9499000E949800CE010E949A0070
:06012200CE010E949600D0
:040128000C94000033
:04012C000E947800B5
:02013000089530
:0201320008952E
:0201340008952C
:02000004008278
:090000000000020000C40000052C
:02000004008377
:01000000C53A
:00000001FF
