:08000000803102288731AB2F8B
:100F56004001AD2FBB2787311930F0000430400126
:100F66008C06F101700871020318B12FF10AB52F32
:100F7600E0278731C2278731EA278731F42F4001DE
:100F86009801990180309A003B309200F03093002E
:100F96007F3094007A307E01CE00F030C3003330CB
:100FA600B800C401B9010530CF00BA01C501D001AE
:100FB6002708C0391738A70008004F019601970186
:100FC600980199019A019B019C019D0108006930D5
:100FD60051018D0040308F0008309100930192013D
:100FE6000800D0304B019F0001309D009C014E014E
:0A0FF6008C1280304B019E000800B1
:020000040001F9
:0800000022110201FF3F010281
:0A000E00EC3FFF3F9F3FFF3FFF3F25
:10E0000011002200330044005500660077008800AC
:10E01000110022003300440055006600770088009C
:10E02000110022003300440055006600770088008C
:10E03000110022003300440055006600770088007C
:10E04000110022003300440055006600770088006C
:10E05000110022003300440055006600770088005C
:10E06000110022003300440055006600770088004C
:10E07000110022003300440055006600770088003C
:10E08000110022003300440055006600770088002C
:10E09000110022003300440055006600770088001C
:10E0A000110022003300440055006600770088000C
:10E0B00011002200330044005500660077008800FC
:10E0C00011002200330044005500660077008800EC
:10E0D00011002200330044005500660077008800DC
:10E0E00011002200330044005500660077008800CC
:10E0F00011002200330044005500660077008800BC
:10E1000011002200330044005500660077008800AB
:10E11000110022003300440055006600770088009B
:00000001FF
